{
  "contractName": "NativeBridge",
  "abi": [
    {
      "constant": true,
      "inputs": [],
      "name": "validationsRequired",
      "outputs": [
        {
          "name": "",
          "type": "uint256"
        }
      ],
      "payable": false,
      "stateMutability": "view",
      "type": "function"
    },
    {
      "constant": true,
      "inputs": [
        {
          "name": "",
          "type": "bytes32"
        }
      ],
      "name": "transactions",
      "outputs": [
        {
          "name": "initiator",
          "type": "address"
        },
        {
          "name": "amount",
          "type": "uint256"
        },
        {
          "name": "validated",
          "type": "uint256"
        },
        {
          "name": "completed",
          "type": "bool"
        }
      ],
      "payable": false,
      "stateMutability": "view",
      "type": "function"
    },
    {
      "constant": true,
      "inputs": [],
      "name": "owner",
      "outputs": [
        {
          "name": "",
          "type": "address"
        }
      ],
      "payable": false,
      "stateMutability": "view",
      "type": "function"
    },
    {
      "constant": true,
      "inputs": [
        {
          "name": "",
          "type": "bytes32"
        },
        {
          "name": "",
          "type": "address"
        }
      ],
      "name": "validatedBy",
      "outputs": [
        {
          "name": "",
          "type": "bool"
        }
      ],
      "payable": false,
      "stateMutability": "view",
      "type": "function"
    },
    {
      "constant": true,
      "inputs": [],
      "name": "validatorsCount",
      "outputs": [
        {
          "name": "",
          "type": "uint256"
        }
      ],
      "payable": false,
      "stateMutability": "view",
      "type": "function"
    },
    {
      "constant": false,
      "inputs": [
        {
          "name": "newOwner",
          "type": "address"
        }
      ],
      "name": "transferOwnership",
      "outputs": [],
      "payable": false,
      "stateMutability": "nonpayable",
      "type": "function"
    },
    {
      "constant": true,
      "inputs": [
        {
          "name": "",
          "type": "address"
        }
      ],
      "name": "isValidator",
      "outputs": [
        {
          "name": "",
          "type": "bool"
        }
      ],
      "payable": false,
      "stateMutability": "view",
      "type": "function"
    },
    {
      "payable": true,
      "stateMutability": "payable",
      "type": "fallback"
    },
    {
      "anonymous": false,
      "inputs": [
        {
          "indexed": true,
          "name": "initiator",
          "type": "address"
        },
        {
          "indexed": false,
          "name": "amount",
          "type": "uint256"
        }
      ],
      "name": "FundsReceived",
      "type": "event"
    },
    {
      "anonymous": false,
      "inputs": [
        {
          "indexed": true,
          "name": "validator",
          "type": "address"
        }
      ],
      "name": "ValidatorAdded",
      "type": "event"
    },
    {
      "anonymous": false,
      "inputs": [
        {
          "indexed": true,
          "name": "validator",
          "type": "address"
        }
      ],
      "name": "ValidatorRemoved",
      "type": "event"
    },
    {
      "anonymous": false,
      "inputs": [
        {
          "indexed": true,
          "name": "txHash",
          "type": "bytes32"
        },
        {
          "indexed": true,
          "name": "validator",
          "type": "address"
        },
        {
          "indexed": false,
          "name": "validatedCount",
          "type": "uint256"
        },
        {
          "indexed": false,
          "name": "completed",
          "type": "bool"
        }
      ],
      "name": "Validated",
      "type": "event"
    },
    {
      "constant": false,
      "inputs": [
        {
          "name": "_value",
          "type": "uint256"
        }
      ],
      "name": "setValidationsRequired",
      "outputs": [],
      "payable": false,
      "stateMutability": "nonpayable",
      "type": "function"
    },
    {
      "constant": false,
      "inputs": [
        {
          "name": "_validator",
          "type": "address"
        }
      ],
      "name": "addValidator",
      "outputs": [],
      "payable": false,
      "stateMutability": "nonpayable",
      "type": "function"
    },
    {
      "constant": false,
      "inputs": [
        {
          "name": "_validator",
          "type": "address"
        }
      ],
      "name": "removeValidator",
      "outputs": [],
      "payable": false,
      "stateMutability": "nonpayable",
      "type": "function"
    },
    {
      "constant": false,
      "inputs": [
        {
          "name": "_txHash",
          "type": "bytes32"
        },
        {
          "name": "_initiator",
          "type": "address"
        },
        {
          "name": "_amount",
          "type": "uint256"
        }
      ],
      "name": "validate",
      "outputs": [],
      "payable": false,
      "stateMutability": "nonpayable",
      "type": "function"
    }
  ],
  "bytecode": "0x60806040526000600155600280556000600360006101000a81548160ff021916908315150217905550336000806101000a81548173ffffffffffffffffffffffffffffffffffffffff021916908373ffffffffffffffffffffffffffffffffffffffff1602179055506111b6806100776000396000f3006080604052600436106100af576000357c0100000000000000000000000000000000000000000000000000000000900463ffffffff168063240f0c031461011657806340a141ff146101415780634d238c8e146101845780634e461403146101c75780635fa86746146101f4578063642f2eaf1461024f5780638da5cb5b146102d9578063d9e51f4a14610330578063ed612f8c14610399578063f2fde38b146103c4578063facd743b14610407575b60025460015410151561010f573373ffffffffffffffffffffffffffffffffffffffff167f8e47b87b0ef542cdfa1659c551d88bad38aa7f452d2bbb349ab7530dfec8be8f346040518082815260200191505060405180910390a2610114565b600080fd5b005b34801561012257600080fd5b5061012b610462565b6040518082815260200191505060405180910390f35b34801561014d57600080fd5b50610182600480360381019080803573ffffffffffffffffffffffffffffffffffffffff169060200190929190505050610468565b005b34801561019057600080fd5b506101c5600480360381019080803573ffffffffffffffffffffffffffffffffffffffff1690602001909291905050506105d4565b005b3480156101d357600080fd5b506101f260048036038101908080359060200190929190505050610741565b005b34801561020057600080fd5b5061024d6004803603810190808035600019169060200190929190803573ffffffffffffffffffffffffffffffffffffffff169060200190929190803590602001909291905050506107b5565b005b34801561025b57600080fd5b5061027e6004803603810190808035600019169060200190929190505050610fa2565b604051808573ffffffffffffffffffffffffffffffffffffffff1673ffffffffffffffffffffffffffffffffffffffff1681526020018481526020018381526020018215151515815260200194505050505060405180910390f35b3480156102e557600080fd5b506102ee610fff565b604051808273ffffffffffffffffffffffffffffffffffffffff1673ffffffffffffffffffffffffffffffffffffffff16815260200191505060405180910390f35b34801561033c57600080fd5b5061037f6004803603810190808035600019169060200190929190803573ffffffffffffffffffffffffffffffffffffffff169060200190929190505050611024565b604051808215151515815260200191505060405180910390f35b3480156103a557600080fd5b506103ae611053565b6040518082815260200191505060405180910390f35b3480156103d057600080fd5b50610405600480360381019080803573ffffffffffffffffffffffffffffffffffffffff169060200190929190505050611059565b005b34801561041357600080fd5b50610448600480360381019080803573ffffffffffffffffffffffffffffffffffffffff169060200190929190505050611133565b604051808215151515815260200191505060405180910390f35b60025481565b6000809054906101000a900473ffffffffffffffffffffffffffffffffffffffff1673ffffffffffffffffffffffffffffffffffffffff163373ffffffffffffffffffffffffffffffffffffffff161415156104c357600080fd5b600460008273ffffffffffffffffffffffffffffffffffffffff1673ffffffffffffffffffffffffffffffffffffffff16815260200190815260200160002060009054906101000a900460ff16151561051b57600080fd5b6000600460008373ffffffffffffffffffffffffffffffffffffffff1673ffffffffffffffffffffffffffffffffffffffff16815260200190815260200160002060006101000a81548160ff0219169083151502179055506105886001805461115390919063ffffffff16565b6001819055508073ffffffffffffffffffffffffffffffffffffffff167fe1434e25d6611e0db941968fdc97811c982ac1602e951637d206f5fdda9dd8f160405160405180910390a250565b6000809054906101000a900473ffffffffffffffffffffffffffffffffffffffff1673ffffffffffffffffffffffffffffffffffffffff163373ffffffffffffffffffffffffffffffffffffffff1614151561062f57600080fd5b600460008273ffffffffffffffffffffffffffffffffffffffff1673ffffffffffffffffffffffffffffffffffffffff16815260200190815260200160002060009054906101000a900460ff1615151561068857600080fd5b6001600460008373ffffffffffffffffffffffffffffffffffffffff1673ffffffffffffffffffffffffffffffffffffffff16815260200190815260200160002060006101000a81548160ff0219169083151502179055506106f56001805461116c90919063ffffffff16565b6001819055508073ffffffffffffffffffffffffffffffffffffffff167fe366c1c0452ed8eec96861e9e54141ebff23c9ec89fe27b996b45f5ec388498760405160405180910390a250565b6000809054906101000a900473ffffffffffffffffffffffffffffffffffffffff1673ffffffffffffffffffffffffffffffffffffffff163373ffffffffffffffffffffffffffffffffffffffff1614151561079c57600080fd5b6000811115156107ab57600080fd5b8060028190555050565b600460003373ffffffffffffffffffffffffffffffffffffffff1673ffffffffffffffffffffffffffffffffffffffff16815260200190815260200160002060009054906101000a900460ff161515610876576040517f08c379a00000000000000000000000000000000000000000000000000000000081526004018080602001828103825260188152602001807f596f7520617265206e6f7420612076616c696461746f722e000000000000000081525060200191505060405180910390fd5b60056000846000191660001916815260200190815260200160002060030160009054906101000a900460ff1615151561093d576040517f08c379a00000000000000000000000000000000000000000000000000000000081526004018080602001828103825260258152602001807f546865207472616e73616374696f6e20697320636f6d706c6574656420616c7281526020017f656164792e00000000000000000000000000000000000000000000000000000081525060400191505060405180910390fd5b60066000846000191660001916815260200190815260200160002060003373ffffffffffffffffffffffffffffffffffffffff1673ffffffffffffffffffffffffffffffffffffffff16815260200190815260200160002060009054906101000a900460ff16151515610a18576040517f08c379a00000000000000000000000000000000000000000000000000000000081526004018080602001828103825260198152602001807f596f752776652076616c69646174656420616c72656164792e0000000000000081525060200191505060405180910390fd5b600073ffffffffffffffffffffffffffffffffffffffff1660056000856000191660001916815260200190815260200160002060000160009054906101000a900473ffffffffffffffffffffffffffffffffffffffff1673ffffffffffffffffffffffffffffffffffffffff161415610b6657600081118015610ab25750803073ffffffffffffffffffffffffffffffffffffffff163110155b1515610abd57600080fd5b8160056000856000191660001916815260200190815260200160002060000160006101000a81548173ffffffffffffffffffffffffffffffffffffffff021916908373ffffffffffffffffffffffffffffffffffffffff1602179055508060056000856000191660001916815260200190815260200160002060010181905550600160056000856000191660001916815260200190815260200160002060020181905550610ca4565b600060056000856000191660001916815260200190815260200160002060010154111515610b9357600080fd5b600560008460001916600019168152602001908152602001600020600101543073ffffffffffffffffffffffffffffffffffffffff163110151515610bd757600080fd5b60056000846000191660001916815260200190815260200160002060000160009054906101000a900473ffffffffffffffffffffffffffffffffffffffff1673ffffffffffffffffffffffffffffffffffffffff168273ffffffffffffffffffffffffffffffffffffffff16141515610c4f57600080fd5b610c8160016005600086600019166000191681526020019081526020016000206002015461116c90919063ffffffff16565b600560008560001916600019168152602001908152602001600020600201819055505b600160066000856000191660001916815260200190815260200160002060003373ffffffffffffffffffffffffffffffffffffffff1673ffffffffffffffffffffffffffffffffffffffff16815260200190815260200160002060006101000a81548160ff02191690831515021790555060025460056000856000191660001916815260200190815260200160002060020154101515610ef557600360009054906101000a900460ff16151515610dc3576040517f08c379a00000000000000000000000000000000000000000000000000000000081526004018080602001828103825260188152602001807f5265656e7472616e742063616c6c20646574656374656421000000000000000081525060200191505060405180910390fd5b6001600360006101000a81548160ff0219169083151502179055508173ffffffffffffffffffffffffffffffffffffffff166005600085600019166000191681526020019081526020016000206001015460405180602001905060006040518083038185875af1925050501515610ea2576040517f08c379a00000000000000000000000000000000000000000000000000000000081526004018080602001828103825260108152602001807f5472616e73666572206661696c65642e0000000000000000000000000000000081525060200191505060405180910390fd5b600160056000856000191660001916815260200190815260200160002060030160006101000a81548160ff0219169083151502179055506000600360006101000a81548160ff0219169083151502179055505b3373ffffffffffffffffffffffffffffffffffffffff1683600019167f06f812cf521b4e05d850b6e624f496dc92eeb35d9047b19fa52b4f0a5004af186005600087600019166000191681526020019081526020016000206002015460056000886000191660001916815260200190815260200160002060030160009054906101000a900460ff1660405180838152602001821515151581526020019250505060405180910390a3505050565b60056020528060005260406000206000915090508060000160009054906101000a900473ffffffffffffffffffffffffffffffffffffffff16908060010154908060020154908060030160009054906101000a900460ff16905084565b6000809054906101000a900473ffffffffffffffffffffffffffffffffffffffff1681565b60066020528160005260406000206020528060005260406000206000915091509054906101000a900460ff1681565b60015481565b6000809054906101000a900473ffffffffffffffffffffffffffffffffffffffff1673ffffffffffffffffffffffffffffffffffffffff163373ffffffffffffffffffffffffffffffffffffffff161415156110b457600080fd5b600073ffffffffffffffffffffffffffffffffffffffff168173ffffffffffffffffffffffffffffffffffffffff16141515156110f057600080fd5b806000806101000a81548173ffffffffffffffffffffffffffffffffffffffff021916908373ffffffffffffffffffffffffffffffffffffffff16021790555050565b60046020528060005260406000206000915054906101000a900460ff1681565b600082821115151561116157fe5b818303905092915050565b600080828401905083811015151561118057fe5b80915050929150505600a165627a7a723058201364562147400e1125114331e3158beed0a2d7c38025b54246f13f21d9d885680029",
  "source": "pragma solidity ^0.4.26;\r\n\r\n//import \"openzeppelin-solidity/contracts/math/SafeMath.sol\";\r\n//import \"openzeppelin-solidity/contracts/ownership/Ownable.sol\";\r\nimport \"./SafeMath.sol\";\r\nimport \"./Ownable.sol\";\r\n\r\n/**\r\n * @title NativeBridge\r\n * @dev Native Coin to Ethereum ERC20 Token Bridge\r\n */\r\ncontract NativeBridge is Ownable {\r\n\r\n\tusing SafeMath for uint;\r\n\r\n    uint public validatorsCount = 0;\r\n    uint public validationsRequired = 2;\r\n \r\n    bool locked = false; // Reentrancy Guard\r\n\r\n    struct Transaction {\r\n\t\taddress initiator;\r\n\t\tuint amount;\r\n\t\tuint validated;\r\n\t\tbool completed;\r\n\t}\r\n\r\n    event FundsReceived(address indexed initiator, uint amount);\r\n\r\n    event ValidatorAdded(address indexed validator);\r\n    event ValidatorRemoved(address indexed validator);\r\n\r\n    event Validated(bytes32 indexed txHash, address indexed validator, uint validatedCount, bool completed);\r\n\r\n    mapping (address => bool) public isValidator;\r\n\r\n    mapping (bytes32 => Transaction) public transactions;\r\n\tmapping (bytes32 => mapping (address => bool)) public validatedBy; // is validated by \r\n\r\n\r\n\tfunction() external payable {\r\n        if ( validatorsCount >= validationsRequired ) {\r\n    \t\temit FundsReceived(msg.sender, msg.value);\r\n        } else {\r\n            revert();\r\n        }\r\n\t}\r\n\r\n\tfunction setValidationsRequired( uint _value ) onlyOwner public {\r\n        require (_value > 0);\r\n        validationsRequired = _value;\r\n\t}\r\n\r\n\tfunction addValidator( address _validator ) onlyOwner public {\r\n        require (!isValidator[_validator]);\r\n        isValidator[_validator] = true;\r\n        validatorsCount = validatorsCount.add(1);\r\n        emit ValidatorAdded(_validator);\r\n\t}\r\n\r\n\tfunction removeValidator( address _validator ) onlyOwner public {\r\n        require (isValidator[_validator]);\r\n        isValidator[_validator] = false;\r\n        validatorsCount = validatorsCount.sub(1);\r\n        emit ValidatorRemoved(_validator);\r\n\t}\r\n\r\n\tfunction validate(bytes32 _txHash, address _initiator, uint _amount) public {\r\n        \r\n        require ( isValidator[msg.sender], \"You are not a validator.\");\r\n        require ( !transactions[_txHash].completed , \"The transaction is completed already.\");\r\n        require ( !validatedBy[_txHash][msg.sender], \"You've validated already.\");\r\n\r\n        if ( transactions[_txHash].initiator == address(0) ) {\r\n            require ( _amount > 0 && address(this).balance >= _amount );\r\n            transactions[_txHash].initiator = _initiator;\r\n            transactions[_txHash].amount = _amount;\r\n            transactions[_txHash].validated = 1;\r\n\r\n        } else {\r\n            require ( transactions[_txHash].amount > 0 );\r\n            require ( address(this).balance >= transactions[_txHash].amount );\r\n            require ( _initiator == transactions[_txHash].initiator );\r\n            //require ( transactions[_txHash].validated < validationsRequired, \"No need to validate\" );\r\n            transactions[_txHash].validated = transactions[_txHash].validated.add(1);\r\n        }\r\n        validatedBy[_txHash][msg.sender] = true;\r\n        if (transactions[_txHash].validated >= validationsRequired) {\r\n    \t\t//_initiator.transfer(_amount);  //  EIP 1884\r\n            require(!locked, \"Reentrant call detected!\");\r\n            locked = true;\r\n            require(_initiator.call.value(transactions[_txHash].amount)(\"\"), \"Transfer failed.\");            \r\n            transactions[_txHash].completed = true;\r\n            locked = false;            \r\n        }\r\n        emit Validated(_txHash, msg.sender, transactions[_txHash].validated, transactions[_txHash].completed);\r\n\t}\r\n}",
  "sourcePath": "D:/ShareD/charg/final/bridge/contracts/NativeBridge.sol",
  "compiler": {
    "name": "solc",
    "version": "0.4.26+commit.4563c3fc.Emscripten.clang"
  },
  "schemaVersion": "3.0.19",
  "updatedAt": "2020-04-11T18:17:15.810Z",
  "networkType": "ethereum",
  "devdoc": {
    "methods": {
      "transferOwnership(address)": {
        "details": "Allows the current owner to transfer control of the contract to a newOwner.\r",
        "params": {
          "newOwner": "The address to transfer ownership to.\r"
        }
      }
    },
    "title": "NativeBridge\r"
  },
  "userdoc": {
    "methods": {}
  }
}